:10000300000002021F000000B5E7C4D4C8A6C8A6BA
:10001300D7D4BCBAD7F6B5C4BCD955C5CC000000FB
:10002300312E30310001FF00000002007000050096
:100033000000000000000000240000000000EB3E70
:10004300904D53444F53352E30000220010002F0EF
:10005300010000F81000200040000000000040FFF5
:10006300010080002988097120BCD955C5CC000046
:10007300000000004641543136202020F17DFA3340
:10008300C98ED1BCFC7B1607BD7800C576001E5611
:100093001655BF2205897E00894E02B10BFCF3A4DD
:1000A300061FBD007CC645FE0F8B46188845F9FB2D
:1000B3003866247C04CD13723C8A461098F7661682
:1000C30003461C13561E03460E13D150528946FC99
:1000D3008956FEB820008B7611F7E68B5E0B03C3BF
:1000E30048F7F30146FC114EFE5A58BB00078BFB41
:1000F300B101E894007247382D7419B10B568B7611
:100103003EF3A65E744A4E740B03F983C7153BFB9B
:1001130072E5EBD72BC9B8D87D87463E3CD8759995
:10012300BE807DAC9803F0AC84C074173CFF7409A7
:10013300B40EBB0700CD10EBEEBE837DEBE5BE81B5
:100143007DEBE033C0CD165E1F8F048F4402CD19C3
:10015300BE827D8B7D0F83FF0272C88BC748488A9E
:100163004E0DF7E10346FC1356FEBB000753B104E3
:10017300E816005B72C8813F4D5A75A781BF000224
:10018300424A759FEA00027000505251919233D255
:10019300F7761891F776184287CAF7761A8AF28AA1
:1001A30056248AE8D0CCD0CC0ACCB80102CD13595E
:1001B3005A58720940750142035E0BE2CCC303181F
:1001C30001270D0A496E76616C6964207379737433
:1001D300656D206469736BFF0D0A4469736B204975
:1001E3002F4F206572726F72FF0D0A5265706C613A
:1001F300636520746865206469736B2C20616E6489
:10020300207468656E20707265737320616E792047
:100213006B65790D0A00494F202020202020535977
:10022300534D53444F5320202053595380010057BB
:10023300494E424F4F5420535953000055AAF8FFDB
:10024300FFFFFFFF000000000000000000000000AF
:10025300000000000000000000000000000000009B
:10026300000000000000000000000000000000008B
:10027300000000000000000000000000000000007B
:10028300000000000000000000000000000000006B
:10029300000000000000000000000000000000005B
:1002A300000000000000000000000000000000004B
:1002B3000000000000000000000000000000BCD9A6
:1002C30055C5CC20202020202008000000404131CB
:1002D300423100000040423100000000000054455C
:1002E3005354202020205458540100000040413131
:1002F30042310000004042310200E9000000D5E233
:10030300CAC7D2BBB8F6B2E2CAD4B3CCD0F2A3AC5C
:10031300D3C3C0B4B2E2CAD4CEC4BCFECFB5CDB34E
:10032300CAC7B7F1B9A4D7F7D5FDB3A3A1A3C8E74B
:10033300B9FBC4E3C4DCBFB4B5BDD5E2D0A9CEC418
:10034300D7D6A3ACC4C7C3B4CBB5C3F7C4E3B5C452
:10035300B5E7C4D4D2D1BEADD6D0C1CBD7EECEDEB5
:10036300B3DCB5C4313038B2A1B6BEC1CBA3ACC780
:10037300EBC2EDC9CFB0D1CBF9D3D0CEC4BCFEC94B
:10038300BEB3FDA3ACB2A2B8F1CABDBBAFD3B2C575
:10039300CCBAF3A3ACBDABD3B2C5CCD1B9CBE9A333
:1003A300ACD2D4C3E2C4E3D2B2B1BBB8D0C8BEA30B
:1003B300A1C8E7B9FBC4E3D4DA3330C3EBC4DABB77
:1003C300B9CEB4BFAACABCC9BEB3FDCEC4BCFEA3DA
:1003D300ACC4E3B5C4B5E7C4D4BDABBBE1D3C0BEC5
:1003E300C3B1A8B7CFA3A104030904120332003099
:1003F300003700310030003900380032001201109C
:1004030001000000107104F0FF0100000002010967
:1004130002200001010080C8090400000208065000
:0F042300000705820240000007050202400000AA
:040F5B00AD07AC062C
:0A0F5F00AB05EBFAECFBAE02AF03AA
:010F69002265
:0110030022CA
:03100000AF062216
:100E4500E4FDFCC3ED9FEC9E5015E4FBFA0BBB00E3
:0F0E5500010AEB64E64A70F50DBD00010C80E464
:010E6400226B
:0C0FA300D2B58F80C2B6D2B67580FF2296
:0C0FAF00C2B58F80C2B6D2B67580FF229A
:040F9600FF120FA394
:080F9A00C2B5C2B7AF80D2B7A7
:010FA200222C
:100F4B007FF4120FA3120F9A8F09120F9A8F0A2296
:0E0F8800AE077FD0120FA3EE4480FF020FAF22
:0A0FC7007FD8120FA37F01020FAFC5
:070FE100120FA3120F9A2268
:070FE800EF2440120F9622D6
:100F1400EF2440FF120FA3ED70047F0180027F00D5
:030F2400020FAF0A
:070FEF00EF2480120F96228F
:050FF6007FF2020FA3D1
:050FFB007FFA020FA3C4
:080FD100120FE17FF1020FA3F2
:0110040022C9
:080CC1008B648A658966AE07A9
:100CC900120FE8AF06120FE1EF70047F0180027F77
:100CD90000EF30E008E4FF1210047F0022AF061293
:100CE9000FEF7FF0120FA3120F9A120F9AAE07EEB1
:100CF900D39D4002AE05E4FFEFC39E5017C2B7ABC8
:100D090064AA65A9668F82758300E580120BA4D257
:090D1900B70F80E4120FF6AF06DB
:010D220022AE
:0A0D7C007B007A007900E4FD7F019E
:0A0D86008B6D8A6E896FAE05AD0714
:100D9000120FE8AF05120FE17FF0120FA3E4FF126C
:100DA0000FAFAF06120FAFFFEFC39E5017AB6DAA88
:100DB0006EA96F8F82758300120B77F580C2B6D251
:0C0DC000B60F80E47580FF120FFBAF0639
:010DCC002204
:100EFE007FF3120FA37F0E120FAF7F47120FAF7F3C
:060F0E00647E00020E45A6
:0F0F6A007FF3120FA37F1E120FAF7F47020FAF4F
:080FD900E4FF120F88020FC7AC
:100E2200E4F50CF50D120FC7AF0BEF4401F50BAF54
:100E32000BEF54FDF50B754F53754E42754D5375BF
:030E42004C5522EA
:0110050022C8
:100DFB00AF0DEF4402F50D7F01120FE1EF20E0F78D
:100E0B00120D7CAF30120F88AF0DEF54FBF50DAF09
:070E1B000DEF54FEF50D225E
:100DCD00EF1460091460042402700E8007E4F55CD2
:100DDD00F55C8005E4F55CF55D7B007A00795C7D62
:0D0DED00027F01120D86AF0DEF54FBF50DD6
:010DFA0022D6
:100E8500E4FFFBFAF9FD0F120D86AF0DEF54FBF5EC
:090E95000DAF0DEF54FEF50D2226
:100E9E00E4FFFBFAF9FD0F120D86AF0DEF54FBF5D3
:090EAE000DAF0DEF54FEF50D220D
:0F0F7900AF0DEF54FBF50DAF0DEF54FEF50D224C
:100F2700120D7CAF0DEF54FBF50DAF0DEF54FEF531
:020F37000D2289
:100EB700755C017B007A00795C7D017F01120D86EC
:070EC700AF0DEF54FBF50D28
:010ECE002201
:100F3900120D7CAF0DEF54FBF50DAF0DEF54FEF51F
:020F49000D2277
:100ECF00755C017B007A00795C7D017F01120D86D4
:070EDF00AF0DEF54FBF50D10
:010EE60022E9
:100EE700E4F55CFB7A00795C7D017F01120D86AF2A
:060EF7000DEF54FBF50DA8
:010EFD0022D2
:100E6500120D7CAF0DEF54FBF50DAF0DEF54FEF5F4
:100E75000DAF0BEF4401F50BAF0BEF54FDF50B2256
:1007D200AF0CEFC4540F30E003020879AF30AE2FF4
:1007E200121000EF24FE6018146042240270777524
:1007F20037007538127539FF753A04753B0080660B
:10080200900414E493FE740193FF120F5B8E378FF2
:10081200387539FF753A04753B12C3E5369538E5EC
:1008220035953750418535378536388039AF30AE0A
:100832002F121003EF70129003EA93753700F53808
:100842007539FF753A03753BEAAF30AE2F121003CC
:10085200BF02139003EEE493753700F5387539FF44
:10086200753A03753BEEC3E5369538E53595375055
:1008720006853537853638C3E5389410E537940058
:100882004034AB39AA3AA93B7D107F01120D867420
:1008920010253BF53BE4353AF53A74F02538F53846
:1008A20074FF3537F537AF0DEFC31330E01CAF0CD3
:1008B200EF4410F50C22AD38AB39AA3AA93B7F01BF
:1008C200120D86AF0CEF547FF50CAF0DEF54FBF514
:0208D2000D22F5
:1009BC00E4FF120FE88F08AF08EFC413540720E0D0
:1009CC0003020A56E4F535F536F537F538FB7A00AF
:1009DC00792D7D08FF120CC1EF6408600BE4FDFF5C
:1009EC00120F147F01020F14AF30AE2F120F5B8E5B
:1009FC002F8F30AF32AE31120F5B8E318F32AF345E
:100A0C00AE33120F5B8E338F34E4FF120FD17F01A4
:100A1C00120FD1853335853436AF0CEF54EFF50C0E
:100A2C00AF0DEF4404F50DAF0CEF547FF50CAF0D8B
:100A3C00EF54FEF50DE52D30E708AF0CEF4480F5D3
:100A4C000C22AF0DEF4401F50D22E4FF120FE11261
:030A5C000FF62270
:1008D4007F01120FE8AF0CEFC4131313540120E08F
:1008E40009AF0CEFC4540F30E058E52DB4A108E56E
:1008F4002EB4FE03120EE7E52D547B14602714601A
:1009040038240260030209BBE52E24FA600F24FE9A
:1009140060102408700FE4FF120DCD80081207D276
:100924008003120EB7E52E24F6600B240A700A7FAA
:1009340001120DCD8003120ECFE52E707A7F0202D4
:100944000DCDAF0DEF30E06FE52DB42108E52EB4E9
:10095400FF03120E65E52D540314602E1460442425
:10096400027054E52E24FD601424FE601424FE60FD
:100974001324FE60122408703EE4FF8032E4FF80FA
:1009840033020DFB020F79020F27E52E24FD600CC4
:1009940024F8600C240A701F7F0180137F018014E7
:1009A400020F39E52E24FD60092402700A7F020239
:0809B4000E857F02120E9E2247
:070D2300E4F56CFFFEFDFC8E
:100D2A008F6B8E6A8D698C6885155385145285136D
:100D3A00518512508F578E568D558C54856C587F1D
:100D4A0005120FE1EF20E0F77B007A00794C7D0D68
:100D5A007F05120D86AF0DEF54F7F50DAF0DEF5469
:100D6A00EFF50DAF0BEF4401F50BAF0BEF54FDF5AB
:020D7A000B224A
:1006CB00AF0BEFC31320E0030207D1E4FBAF5FAE28
:1006DB005EAD5DAC5C7808120BD78F5F8E5E8D5D67
:1006EB008C5C741F2BF8E6FFE4FCFDFEE55F2FF539
:1006FB005FEE355EF55EED355DF55DEC355CF55C1D
:10070B000BBB04C9E4F563F562F561F560FCFDFE16
:10071B00E5632524F563EE3562F562ED3561F56130
:10072B00EC3560F560AF63AE62AD61FC7808120B1F
:10073B00D78F638E628D618C60E4FCFDFEE56325D3
:10074B0025F563EE3562F562ED3561F561EC3560EB
:10075B00F560AF63AE62AD61FC7809120BD78F63A6
:10076B008E628D618C60AF0DEFC4540F30E0577FFC
:10077B0004120FE1EF30E0F7E47F40FEFDFCAB63CA
:10078B00AA62A961A860D3120BC640287B007A002D
:10079B0079707D407F04120CC1C3E5639440F5630F
:1007AB00E5629400F562E5619400F561E560940003
:1007BB00F56080B2AD637B007A0079707F04120C18
:0607CB00C1120D2380A005
:0107D1002205
:100A5F00AF0BEF20E003020AEF7B007A00790E7DE7
:100A6F001F7F04120CC1EF641F60047F0280187F88
:100A7F00437E427D537C55AB11AA10A90FA80EC31C
:100A8F00120BC660057F03021004AF0BEF54FEF587
:100A9F000BAF0BEF4402F50BE51A30E70FAF0DEF7D
:100AAF004408F50DAF0DEF54EFF50D22AF0DEF54D8
:100ABF00F7F50DAF0DEF4410F50DE51D600B24D1CB
:100ACF0060072405700C0206CBE4F56CFFFEFDFCFD
:100ADF00800BAF19AE18AD17AC16756C01020D2A4D
:0E0AEF007F04120FE87F04120FE1120FF622AF
:100BEA008F6B8E6A8D698C68E4FFFEFDFCAB6BAA85
:100BFA006AA969A868C3120BC670077BFF7A0079D5
:100C0A004122E47F02FEFDFCAB6BAA6AA969A868CF
:100C1A00C3120BC67002802FE47F40FEFDFCAB6B53
:100C2A00AA6AA969A868C3120BC670077BFF7A0271
:100C3A00798122E47F0AFEFDFCAB6BAA6AA969A846
:0E0C4A0068C3120BC670067BFF7A0279412246
:10043200E4F55FF55EF55DF55CF567F566F565F586
:1004420064AF0BEFC31320E0030206C5E4FBAF5F0A
:10045200AE5EAD5DAC5C7808120BD78F5F8E5E8DA1
:100462005D8C5C741F2BF8E6FFE4FCFDFEE55F2F5C
:10047200F55FEE355EF55EED355DF55DEC355CF50F
:100482005C0BBB04C9AF5FAE5EAD5DAC5C120BEA48
:100492008B598A5A895BE4F563F562F561F560FC74
:1004A200FDFEE5632524F563EE3562F562ED356107
:1004B200F561EC3560F560AF63AE62AD61FC780862
:1004C200120BD78F638E628D618C60E4FCFDFEE5BA
:1004D200632525F563EE3562F562ED3561F561EC74
:1004E2003560F560AF63AE62AD61FC7809120BD77F
:1004F2008F638E628D618C60AF0DEF131313541FE7
:1005020020E0030206CAE4FFFEFDFCAB5FAA5EA97F
:100512005DA85CC3120BC6704DFF7E02FDFCAB678B
:10052200AA66A965A864C3120BC650127441256756
:10053200F9740035667559FFF55A895B8028E4FF26
:100542007E02FDFCAB67AA66A965A864C3120BC64E
:10055200700B7559FF755A02755B4180097559FF19
:10056200755A02755B81E47F02FEFDFCAB5FAA5EF9
:10057200A95DA85CC3120BC670097559FF755A02B2
:10058200755B81E47F08FEFDFCAB5FAA5EA95DA8F6
:100592005CC3120BC670097559FF755A02755B81EF
:1005A200E47F10FEFDFCAB5FAA5EA95DA85CC312EE
:1005B2000BC67027FF7E02FDFCAB67AA66A965A881
:1005C20064C3120BC6700B7559FF755A02755B41F5
:1005D20080097559FF755A02755B81E47F21FEFD22
:1005E200FCAB5FAA5EA95DA85CC3120BC67026FFB6
:1005F200FEFDFCAB67AA66A965A864C3120BC670B0
:100602000B7559FF755A02755BC180097559FF75E3
:100612005A02755B81E47F40FEFDFCAB5FAA5EA9D6
:100622005DA85CC3120BC6702D7FF0FEFDFCAB67AC
:10063200AA66A965A864C3120BC650117401256786
:10064200F9E434037559FFF55A895B80097559FF3E
:10065200755A02755B817F05120FE1EF20E0F7E426
:100662007F40FEFDFCAB63AA62A961A860D3120BB6
:10067200C64028AB59AA5AA95B7D407F05120D8658
:10068200C3E5639440F563E5629400F562E5619425
:1006920000F561E5609400F5608010AD63AB59AA86
:1006A2005AA95B7F05120D86120D23E5672440F5DA
:1006B20067E43566F566E43565F565E43564F56449
:0806C2000204FA7F0212100489
:0106CA00220D
:100C5800E51D24FD602F24F1601724F8603F24FC73
:100C6800603224FB603724FE601124FD702F0204DB
:100C7800327BFF7A0079037D2480127BFF7A00792A
:100C8800277D0880087BFF7A00792F7D127F051267
:100C98000D868000E4F56CFFFEFDFC80187B007A71
:100CA800007900E4FD7F05120D86AF19AE18AD1767
:090CB800AC16756C01120D2A2224
:100AFD00120EFE120FD9120F6A20B2FD120F4BAF5C
:100B0D0009EFC41313540330E005120E2280EAAF2F
:100B1D0009EFC4131313540130E00512100580D9E9
:100B2D00AF09EF30E0051209BC80CEAF09EFC3135A
:100B3D0030E00FAF0DEF1313543F30E0051208D422
:100B4D0080B7AF09EFC4540F30E005120A5F80A9DA
:100B5D00AF09EFC413540730E09FAF0DEF1313131C
:0A0B6D00541F30E094120C58808FE2
:03000000020FBB31
:0C0FBB00787FE4F6D8FD7581AF020AFDD6
:100B7700BB010CE58229F582E5833AF583E0225033
:100B870006E92582F8E622BBFE06E92582F8E2227D
:0D0B9700E58229F582E5833AF583E4932297
:100BA400F8BB010DE58229F582E5833AF583E8F087
:100BB400225006E92582C8F622BBFE05E92582C833
:020BC400F2221B
:100BC600EB9FF5F0EA9E42F0E99D42F0E89C45F085
:010BD60022FC
:100BD700E8600FEFC333FFEE33FEED33FDEC33FC7C
:030BE700D8F12220
:00000001FF
