:1003B60020420801024344454600000000000000B8
:1003C6000000000000000000000000000000000027
:1003D6000000000000000000000000000000000017
:1003E6000000000000000000000000000000000007
:1003F600000000000020206B6162636465660000F7
:1004060000000000000000000000000000000000E6
:0B0416000000000000000000014A0090
:10000300E4FEEEC39420500DEF2EFD746B2EF8A684
:05001300050E0E80ED5A
:0100180022C5
:0C065700E4FE74082EF8A6070EBE42F662
:010663002274
:040621007F327E00A6
:10062500E4FDFCC3ED9FEC9E5013E4FBE4FA0ABA2B
:0D06350063FC0BBB64F60DBD00010C80E6FC
:010642002295
:1005560075985343878075C830EF8EF012027A057E
:10056600752580057D4B000585E1000000058B752E
:10057600CBFF75CAB2800E75CBFF75CAD9800675DA
:0C058600CBFF75CAF3D299C298D2CA22EA
:10064300E4FF7EAAC2998E993099FDC2997EBB0FB1
:03065300BF02F3F0
:010656002281
:080019008F993099FDC2992274
:10047800E4FDFC120206FF120019740129F9E43A9E
:10048800FA0DBD00010CED64404C70E7E4FCFDC3BF
:10049800ED956AEC9569501FAB66AA67A9681202C8
:1004A80006FF12001974012568F568E43567F567D9
:0F04B8000DBD00010C80D8C299C298D2AFD2AC52
:0104C7002212
:070664003098FDAF99C29828
:01066B00226C
:10033300E4F555F556FD120664EF12021F74012908
:10034300F9E43AFA0DBD03EEE508B4AA037F0022EF
:100353007D03120664EF12021F740129F9E43AFACD
:100363000DBD3FEEE508B4B011755500850E56E599
:1003730056755600F555E50D4256E508B42011753E
:100383005500850D56E556755600F555E50C425654
:10039300E4FDEDC39556E495555015120664AB5232
:1003A300AA53A9548D82758300EF1202310D80E2A6
:0203B3007F01C8
:0103B5002225
:1005FD007F20120657750801E4F50912064375664A
:10060D0000756700756800E4F569F56AFB7A007995
:04061D000802047853
:1004C800AC07E4FF1206578C088D098B0A855A0B76
:1004D800855B0C855C0D855D0E855E0F855F1085DF
:1004E8006011856112856213751420751F38752097
:1004F80021E4F529120643756600756700756800E2
:0D050800E4F569F56AFB7A007908020478D1
:10051500AC077F201206577508068C098D0A8B0BD0
:10052500855A0C855B0D855C0E855D0F855E108596
:100535005F11856012856113120643756600756744
:1005450000756800E4F569F56AFB7A00790802042C
:01055500782D
:060592008B578A588959BD
:10059800E4FF1206578D828C83EDFBECFD7C007521
:1005A8000809E4F5098B0A8D0B1206438557668501
:1005B800586785596885836985826A7B007A0079DE
:0405C80008020478A9
:100422008F5A8E598D588C57750815E4F5098F0A25
:1004320078081202538F5A8E598D588C578F0B7829
:10044200081202538F5A8E598D588C578F0C780888
:100452001202538F5A8E598D588C578F0D120643A4
:10046200756600756700756800E4F569F56AFB7AE0
:0604720000790802047885
:100026007F2C7E011206257F807E2512055612053D
:10003600FD120621E509B401047F0180027F00E577
:1000460008B404047E0180027E00EE5F60E0755A0B
:10005600CC755BA9755C55755D53755E42755F2001
:100066007560547561587562547BEF7DB47F0712D5
:1000760004C8120621E509B401047F0180027F004D
:10008600E508B40A047E0180027E00EE5F60BF7F51
:100096000A7E00120625755AA9755B55755C53755F
:1000A6005D42755E20755F547560587561547BCCF2
:1000B6007DEF7FB4120515120621E509B401047F10
:1000C6000180027F00E508B40D047E0180027E00F7
:1000D600EE5F60C2E4852B4EF54DF54CF54BAF4E09
:1000E600AE4DAD4CAC4B78081202678F4E8E4D8DDF
:1000F6004C8C4BE54E452AF54EE54DF54DE54CF558
:100106004CE54BF54BAF4EAE4DAD4CFC78081202AC
:10011600678F4E8E4D8D4C8C4BE54E4529F54EE541
:100126004DF54DE54CF54CE54BF54BAF4EAE4DADB3
:100136004CFC78081202678F4E8E4D8D4C8C4BE529
:100146004E4528F54EE54DF54DE54CF54CE54BF5A0
:100156004B7F0A7E00120625AF4EAE4DAD4CAC4B22
:10016600120422120621E509B401047F0180027FF0
:1001760000E508B425047E0180027E00EE5F60D8AB
:100186007F0A7E001206257F41120003786B76CE29
:100196000876F70876B00876B20876B40876EF08DF
:1001A60076CC0876A90876B50876E70876D7087675
:1001B600D3087620087655087653087642087631B5
:1001C6000876310876380876417B007A00796B7DAF
:1001D600137C001205927F467E00120625E509B4BF
:1001E60001047F0180027F00E508B40C047E0180D3
:1001F600027E00EE5F60907F0A7E0012062580FE7A
:030023000205CC07
:0B05CC00C0E0C083C082C0D075D0002A
:1005D70030981AC2AC7552007553007554007B00F1
:0D05E7007A007908120333EF6003754A01B2
:0905F400D0D0D082D083D0E032D7
:030000000202A752
:0C02A700787FE4F6D8FD75818A0202EE33
:1002B300020026E493A3F8E493A34003F68001F23B
:1002C30008DFF48029E493A3F85407240CC8C3334C
:1002D300C4540F4420C8834004F456800146F6DF1B
:1002E300E4800B01020408102040809003B6E47EF2
:1002F300019360BCA3FF543F30E509541FFEE49310
:10030300A360010ECF54C025E060A840B8E493A3D6
:10031300FAE493A3F8E493A3C8C582C8CAC583CA01
:10032300F0A3C8C582C8CAC583CADFE9DEE780BEB9
:0104210000DA
:10020600BB010689828A83E0225002E722BBFE02F6
:09021600E32289828A83E4932229
:10021F00BB010689828A83F0225002F722BBFE01BE
:02022F00F322B8
:10023100F8BB010DE58229F582E5833AF583E8F003
:10024100225006E92582C8F622BBFE05E92582C8AF
:02025100F22297
:10025300E86010ECA2E713FCED13FDEE13FEEF13C1
:04026300FFD8F022AE
:10026700E8600FEFC333FFEE33FEED33FDEC33FCF5
:03027700D8F12299
:10027A00D083D082F8E4937012740193700DA3A313
:10028A0093F8740193F5828883E473740293B5F04A
:0D029A00067403936860E9A3A3A3A380D8B2
:00000001FF
